{
  "_format": "hh-sol-artifact-1",
  "contractName": "DecentralizedDeliveryService",
  "sourceName": "contracts/BlockBite.sol",
  "abi": [
    {
      "inputs": [
        {
          "internalType": "address",
          "name": "_governanceToken",
          "type": "address"
        },
        {
          "internalType": "address",
          "name": "_transactionCurrencyToken",
          "type": "address"
        },
        {
          "internalType": "contract IWorldID",
          "name": "_worldIdAddr",
          "type": "address"
        }
      ],
      "stateMutability": "nonpayable",
      "type": "constructor"
    },
    {
      "anonymous": false,
      "inputs": [
        {
          "indexed": true,
          "internalType": "address",
          "name": "customer",
          "type": "address"
        },
        {
          "indexed": false,
          "internalType": "uint256",
          "name": "amount",
          "type": "uint256"
        }
      ],
      "name": "CustomerReputationIncreased",
      "type": "event"
    },
    {
      "anonymous": false,
      "inputs": [
        {
          "indexed": true,
          "internalType": "address",
          "name": "deliverer",
          "type": "address"
        },
        {
          "indexed": false,
          "internalType": "uint256",
          "name": "amount",
          "type": "uint256"
        }
      ],
      "name": "DelivererReputationDecreased",
      "type": "event"
    },
    {
      "anonymous": false,
      "inputs": [
        {
          "indexed": true,
          "internalType": "address",
          "name": "deliverer",
          "type": "address"
        },
        {
          "indexed": false,
          "internalType": "uint256",
          "name": "amount",
          "type": "uint256"
        }
      ],
      "name": "DelivererReputationIncreased",
      "type": "event"
    },
    {
      "anonymous": false,
      "inputs": [
        {
          "indexed": false,
          "internalType": "uint256",
          "name": "orderId",
          "type": "uint256"
        },
        {
          "indexed": false,
          "internalType": "address",
          "name": "deliverer",
          "type": "address"
        }
      ],
      "name": "OrderAccepted",
      "type": "event"
    },
    {
      "anonymous": false,
      "inputs": [
        {
          "indexed": false,
          "internalType": "uint256",
          "name": "orderId",
          "type": "uint256"
        },
        {
          "indexed": false,
          "internalType": "address",
          "name": "by",
          "type": "address"
        }
      ],
      "name": "OrderCancelled",
      "type": "event"
    },
    {
      "anonymous": false,
      "inputs": [
        {
          "indexed": false,
          "internalType": "uint256",
          "name": "orderId",
          "type": "uint256"
        }
      ],
      "name": "OrderCompleted",
      "type": "event"
    },
    {
      "anonymous": false,
      "inputs": [
        {
          "indexed": false,
          "internalType": "uint256",
          "name": "orderId",
          "type": "uint256"
        },
        {
          "indexed": false,
          "internalType": "address",
          "name": "customer",
          "type": "address"
        },
        {
          "indexed": false,
          "internalType": "bytes",
          "name": "encryptedParams",
          "type": "bytes"
        }
      ],
      "name": "OrderCreated",
      "type": "event"
    },
    {
      "anonymous": false,
      "inputs": [
        {
          "indexed": true,
          "internalType": "address",
          "name": "previousOwner",
          "type": "address"
        },
        {
          "indexed": true,
          "internalType": "address",
          "name": "newOwner",
          "type": "address"
        }
      ],
      "name": "OwnershipTransferred",
      "type": "event"
    },
    {
      "anonymous": false,
      "inputs": [
        {
          "indexed": true,
          "internalType": "address",
          "name": "deliverer",
          "type": "address"
        },
        {
          "indexed": false,
          "internalType": "uint256",
          "name": "amount",
          "type": "uint256"
        }
      ],
      "name": "TokensSlashed",
      "type": "event"
    },
    {
      "inputs": [],
      "name": "SLASHING_PERCENTAGE",
      "outputs": [
        {
          "internalType": "uint256",
          "name": "",
          "type": "uint256"
        }
      ],
      "stateMutability": "view",
      "type": "function"
    },
    {
      "inputs": [
        {
          "internalType": "uint256",
          "name": "orderId",
          "type": "uint256"
        }
      ],
      "name": "acceptOrder",
      "outputs": [],
      "stateMutability": "nonpayable",
      "type": "function"
    },
    {
      "inputs": [
        {
          "internalType": "uint256",
          "name": "orderId",
          "type": "uint256"
        }
      ],
      "name": "cancelAfter3Hours",
      "outputs": [],
      "stateMutability": "nonpayable",
      "type": "function"
    },
    {
      "inputs": [
        {
          "internalType": "uint256",
          "name": "orderId",
          "type": "uint256"
        }
      ],
      "name": "cancelOrder",
      "outputs": [],
      "stateMutability": "nonpayable",
      "type": "function"
    },
    {
      "inputs": [
        {
          "internalType": "address",
          "name": "_newGovernanceToken",
          "type": "address"
        },
        {
          "internalType": "address",
          "name": "_transactionCurrencyToken",
          "type": "address"
        }
      ],
      "name": "changeGovernanceTokenDEMOAdmin",
      "outputs": [],
      "stateMutability": "nonpayable",
      "type": "function"
    },
    {
      "inputs": [
        {
          "internalType": "uint256",
          "name": "_requiredReputation",
          "type": "uint256"
        },
        {
          "internalType": "uint256",
          "name": "_reputationLevel",
          "type": "uint256"
        }
      ],
      "name": "changeReputationLevelsDEMOAdmin",
      "outputs": [],
      "stateMutability": "nonpayable",
      "type": "function"
    },
    {
      "inputs": [
        {
          "internalType": "uint256",
          "name": "orderId",
          "type": "uint256"
        },
        {
          "internalType": "bytes",
          "name": "_customerSignature",
          "type": "bytes"
        }
      ],
      "name": "completeOrder",
      "outputs": [],
      "stateMutability": "nonpayable",
      "type": "function"
    },
    {
      "inputs": [
        {
          "internalType": "bytes",
          "name": "encryptedParams",
          "type": "bytes"
        },
        {
          "internalType": "uint256",
          "name": "tokenAmount",
          "type": "uint256"
        }
      ],
      "name": "createOrder",
      "outputs": [],
      "stateMutability": "nonpayable",
      "type": "function"
    },
    {
      "inputs": [
        {
          "internalType": "address",
          "name": "",
          "type": "address"
        }
      ],
      "name": "customerReputation",
      "outputs": [
        {
          "internalType": "uint256",
          "name": "",
          "type": "uint256"
        }
      ],
      "stateMutability": "view",
      "type": "function"
    },
    {
      "inputs": [
        {
          "internalType": "uint256",
          "name": "",
          "type": "uint256"
        }
      ],
      "name": "customerReputationLevels",
      "outputs": [
        {
          "internalType": "uint256",
          "name": "",
          "type": "uint256"
        }
      ],
      "stateMutability": "view",
      "type": "function"
    },
    {
      "inputs": [
        {
          "internalType": "uint256",
          "name": "orderId",
          "type": "uint256"
        }
      ],
      "name": "delivererCancelOrder",
      "outputs": [],
      "stateMutability": "nonpayable",
      "type": "function"
    },
    {
      "inputs": [
        {
          "internalType": "address",
          "name": "",
          "type": "address"
        }
      ],
      "name": "delivererHasActiveOrder",
      "outputs": [
        {
          "internalType": "bool",
          "name": "",
          "type": "bool"
        }
      ],
      "stateMutability": "view",
      "type": "function"
    },
    {
      "inputs": [],
      "name": "governanceToken",
      "outputs": [
        {
          "internalType": "address",
          "name": "",
          "type": "address"
        }
      ],
      "stateMutability": "view",
      "type": "function"
    },
    {
      "inputs": [],
      "name": "orderCount",
      "outputs": [
        {
          "internalType": "uint256",
          "name": "",
          "type": "uint256"
        }
      ],
      "stateMutability": "view",
      "type": "function"
    },
    {
      "inputs": [
        {
          "internalType": "uint256",
          "name": "",
          "type": "uint256"
        }
      ],
      "name": "orders",
      "outputs": [
        {
          "internalType": "address",
          "name": "customer",
          "type": "address"
        },
        {
          "internalType": "address",
          "name": "deliverer",
          "type": "address"
        },
        {
          "internalType": "uint256",
          "name": "amount",
          "type": "uint256"
        },
        {
          "internalType": "uint256",
          "name": "timestamp",
          "type": "uint256"
        },
        {
          "internalType": "bytes",
          "name": "encryptedParams",
          "type": "bytes"
        },
        {
          "internalType": "bool",
          "name": "isAccepted",
          "type": "bool"
        },
        {
          "internalType": "bool",
          "name": "isCompleted",
          "type": "bool"
        }
      ],
      "stateMutability": "view",
      "type": "function"
    },
    {
      "inputs": [],
      "name": "owner",
      "outputs": [
        {
          "internalType": "address",
          "name": "",
          "type": "address"
        }
      ],
      "stateMutability": "view",
      "type": "function"
    },
    {
      "inputs": [
        {
          "internalType": "address",
          "name": "signal",
          "type": "address"
        },
        {
          "internalType": "uint256",
          "name": "root",
          "type": "uint256"
        },
        {
          "internalType": "uint256",
          "name": "nullifierHash",
          "type": "uint256"
        },
        {
          "internalType": "uint256[8]",
          "name": "proof",
          "type": "uint256[8]"
        }
      ],
      "name": "registerWithWorldcoin",
      "outputs": [],
      "stateMutability": "nonpayable",
      "type": "function"
    },
    {
      "inputs": [
        {
          "internalType": "address",
          "name": "",
          "type": "address"
        }
      ],
      "name": "registeredWorldcoin",
      "outputs": [
        {
          "internalType": "bool",
          "name": "",
          "type": "bool"
        }
      ],
      "stateMutability": "view",
      "type": "function"
    },
    {
      "inputs": [],
      "name": "renounceOwnership",
      "outputs": [],
      "stateMutability": "nonpayable",
      "type": "function"
    },
    {
      "inputs": [
        {
          "internalType": "address",
          "name": "",
          "type": "address"
        }
      ],
      "name": "reputation",
      "outputs": [
        {
          "internalType": "uint256",
          "name": "",
          "type": "uint256"
        }
      ],
      "stateMutability": "view",
      "type": "function"
    },
    {
      "inputs": [
        {
          "internalType": "uint256",
          "name": "",
          "type": "uint256"
        }
      ],
      "name": "reputationLevels",
      "outputs": [
        {
          "internalType": "uint256",
          "name": "",
          "type": "uint256"
        }
      ],
      "stateMutability": "view",
      "type": "function"
    },
    {
      "inputs": [],
      "name": "stakeTokens",
      "outputs": [],
      "stateMutability": "nonpayable",
      "type": "function"
    },
    {
      "inputs": [
        {
          "internalType": "address",
          "name": "",
          "type": "address"
        }
      ],
      "name": "stakedTokens",
      "outputs": [
        {
          "internalType": "uint256",
          "name": "",
          "type": "uint256"
        }
      ],
      "stateMutability": "view",
      "type": "function"
    },
    {
      "inputs": [],
      "name": "transactionCurrencyToken",
      "outputs": [
        {
          "internalType": "address",
          "name": "",
          "type": "address"
        }
      ],
      "stateMutability": "view",
      "type": "function"
    },
    {
      "inputs": [
        {
          "internalType": "address",
          "name": "newOwner",
          "type": "address"
        }
      ],
      "name": "transferOwnership",
      "outputs": [],
      "stateMutability": "nonpayable",
      "type": "function"
    },
    {
      "inputs": [
        {
          "internalType": "uint256",
          "name": "_amount",
          "type": "uint256"
        }
      ],
      "name": "unstakeTokens",
      "outputs": [],
      "stateMutability": "nonpayable",
      "type": "function"
    },
    {
      "inputs": [],
      "name": "verifyWorldCoin",
      "outputs": [],
      "stateMutability": "nonpayable",
      "type": "function"
    }
  ],
  "bytecode": "0x60c06040526000600b553480156200001657600080fd5b506040516200455f3803806200455f83398181016040528101906200003c919062000351565b6200005c620000506200019d60201b60201c565b620001a560201b60201c565b82600960006101000a81548173ffffffffffffffffffffffffffffffffffffffff021916908373ffffffffffffffffffffffffffffffffffffffff16021790555081600a60006101000a81548173ffffffffffffffffffffffffffffffffffffffff021916908373ffffffffffffffffffffffffffffffffffffffff1602179055506064600560006001815260200190815260200160002081905550620001596200012c60405160200162000111906200042e565b6040516020818303038152906040526200026960201b60201c565b6040516020016200013e9190620004c4565b6040516020818303038152906040526200026960201b60201c565b60a081815250508073ffffffffffffffffffffffffffffffffffffffff1660808173ffffffffffffffffffffffffffffffffffffffff168152505050505062000580565b600033905090565b60008060009054906101000a900473ffffffffffffffffffffffffffffffffffffffff169050816000806101000a81548173ffffffffffffffffffffffffffffffffffffffff021916908373ffffffffffffffffffffffffffffffffffffffff1602179055508173ffffffffffffffffffffffffffffffffffffffff168173ffffffffffffffffffffffffffffffffffffffff167f8be0079c531659141344cd1fd0a4f28419497f9722a3daafe3b4186f6b6457e060405160405180910390a35050565b600060088260405160200162000280919062000567565b6040516020818303038152906040528051906020012060001c901c9050919050565b600080fd5b600073ffffffffffffffffffffffffffffffffffffffff82169050919050565b6000620002d482620002a7565b9050919050565b620002e681620002c7565b8114620002f257600080fd5b50565b6000815190506200030681620002db565b92915050565b60006200031982620002c7565b9050919050565b6200032b816200030c565b81146200033757600080fd5b50565b6000815190506200034b8162000320565b92915050565b6000806000606084860312156200036d576200036c620002a2565b5b60006200037d86828701620002f5565b93505060206200039086828701620002f5565b9250506040620003a3868287016200033a565b9150509250925092565b600081905092915050565b7f6170705f3464626566613539666466373162396237333439333862616462663960008201527f6332336200000000000000000000000000000000000000000000000000000000602082015250565b600062000416602483620003ad565b91506200042382620003b8565b602482019050919050565b60006200043b8262000407565b9150819050919050565b6000819050919050565b6000819050919050565b6200046e620004688262000445565b6200044f565b82525050565b7f7265676973746572000000000000000000000000000000000000000000000000600082015250565b6000620004ac600883620003ad565b9150620004b98262000474565b600882019050919050565b6000620004d2828462000459565b602082019150620004e3826200049d565b915081905092915050565b600081519050919050565b600081905092915050565b60005b838110156200052457808201518184015260208101905062000507565b60008484015250505050565b60006200053d82620004ee565b620005498185620004f9565b93506200055b81856020860162000504565b80840191505092915050565b600062000575828462000530565b915081905092915050565b60805160a051613fb9620005a6600039600061142e015260006113c60152613fb96000f3fe608060405234801561001057600080fd5b50600436106101a85760003560e01c8063981436df116100f9578063cf7eb98d11610097578063f2fde38b11610071578063f2fde38b14610481578063f85be0711461049d578063f96dae0a146104cd578063fcc3fcf5146104eb576101a8565b8063cf7eb98d14610419578063e11e30c114610449578063ef18e9ed14610465576101a8565b8063b14deecf116100d3578063b14deecf146103a5578063b9f79451146103c1578063bd8d64d9146103f1578063ce46643b1461040f576101a8565b8063981436df14610323578063a5b39cfb1461033f578063a85c38ef1461036f576101a8565b806355d4056411610166578063715018a611610140578063715018a6146102af57806377ce4688146102b95780638da5cb5b146102d5578063942b23da146102f3576101a8565b806355d405641461026d578063608e4dd014610277578063646ff38f14610293576101a8565b8062cb336c146101ad57806322be98ee146101cb5780632453ffa8146101e75780633112f054146102055780634605333214610221578063514fcac714610251575b600080fd5b6101b561051b565b6040516101c29190612743565b60405180910390f35b6101e560048036038101906101e091906128ee565b610541565b005b6101ef6107f1565b6040516101fc9190612959565b60405180910390f35b61021f600480360381019061021a9190612974565b6107f7565b005b61023b60048036038101906102369190612974565b610ae4565b6040516102489190612959565b60405180910390f35b61026b60048036038101906102669190612974565b610afc565b005b610275610d3b565b005b610291600480360381019061028c9190612974565b610d3d565b005b6102ad60048036038101906102a89190612974565b610ff8565b005b6102b7611323565b005b6102d360048036038101906102ce91906129f4565b611337565b005b6102dd6115a3565b6040516102ea9190612743565b60405180910390f35b61030d60048036038101906103089190612974565b6115cc565b60405161031a9190612959565b60405180910390f35b61033d60048036038101906103389190612a5c565b6115e4565b005b61035960048036038101906103549190612ab8565b611aac565b6040516103669190612959565b60405180910390f35b61038960048036038101906103849190612974565b611ac4565b60405161039c9796959493929190612b7f565b60405180910390f35b6103bf60048036038101906103ba9190612bf5565b611be8565b005b6103db60048036038101906103d69190612ab8565b611c0c565b6040516103e89190612959565b60405180910390f35b6103f9611c24565b6040516104069190612959565b60405180910390f35b610417611c29565b005b610433600480360381019061042e9190612ab8565b611de8565b6040516104409190612c35565b60405180910390f35b610463600480360381019061045e9190612c50565b611e08565b005b61047f600480360381019061047a9190612974565b611e96565b005b61049b60048036038101906104969190612ab8565b6121aa565b005b6104b760048036038101906104b29190612ab8565b61222d565b6040516104c49190612c35565b60405180910390f35b6104d561224d565b6040516104e29190612743565b60405180910390f35b61050560048036038101906105009190612ab8565b612273565b6040516105129190612959565b60405180910390f35b600a60009054906101000a900473ffffffffffffffffffffffffffffffffffffffff1681565b600a60009054906101000a900473ffffffffffffffffffffffffffffffffffffffff1673ffffffffffffffffffffffffffffffffffffffff166323b872dd3330846040518463ffffffff1660e01b81526004016105a093929190612c90565b6020604051808303816000875af11580156105bf573d6000803e3d6000fd5b505050506040513d601f19601f820116820180604052508101906105e39190612cf3565b610622576040517f08c379a000000000000000000000000000000000000000000000000000000000815260040161061990612d7d565b60405180910390fd5b600b600081548092919061063590612dcc565b91905055506040518060e001604052803373ffffffffffffffffffffffffffffffffffffffff168152602001600073ffffffffffffffffffffffffffffffffffffffff1681526020018281526020014281526020018381526020016000151581526020016000151581525060046000600b54815260200190815260200160002060008201518160000160006101000a81548173ffffffffffffffffffffffffffffffffffffffff021916908373ffffffffffffffffffffffffffffffffffffffff16021790555060208201518160010160006101000a81548173ffffffffffffffffffffffffffffffffffffffff021916908373ffffffffffffffffffffffffffffffffffffffff1602179055506040820151816002015560608201518160030155608082015181600401908161076c9190613020565b5060a08201518160050160006101000a81548160ff02191690831515021790555060c08201518160050160016101000a81548160ff0219169083151502179055509050507f5d9c5281df05a526392db222829eab2c8edfc0faf6a214774d4d19e49a5c2e92600b5433846040516107e5939291906130f2565b60405180910390a15050565b600b5481565b6000600460008381526020019081526020016000209050612a308160030154426108219190613130565b11610861576040517f08c379a0000000000000000000000000000000000000000000000000000000008152600401610858906131b0565b60405180910390fd5b8060050160019054906101000a900460ff16156108b3576040517f08c379a00000000000000000000000000000000000000000000000000000000081526004016108aa9061321c565b60405180910390fd5b600a60009054906101000a900473ffffffffffffffffffffffffffffffffffffffff1673ffffffffffffffffffffffffffffffffffffffff1663a9059cbb8260000160009054906101000a900473ffffffffffffffffffffffffffffffffffffffff1683600201546040518363ffffffff1660e01b815260040161093892919061323c565b6020604051808303816000875af1158015610957573d6000803e3d6000fd5b505050506040513d601f19601f8201168201806040525081019061097b9190612cf3565b6109ba576040517f08c379a00000000000000000000000000000000000000000000000000000000081526004016109b1906132b1565b60405180910390fd5b60018060008360010160009054906101000a900473ffffffffffffffffffffffffffffffffffffffff1673ffffffffffffffffffffffffffffffffffffffff1673ffffffffffffffffffffffffffffffffffffffff1681526020019081526020016000206000828254610a2d9190613130565b925050819055508060010160009054906101000a900473ffffffffffffffffffffffffffffffffffffffff1673ffffffffffffffffffffffffffffffffffffffff167f2335231cd412e7496a6880a85ed0772f63cd2e9d854ca1da314006e6dd03d7726001604051610a9f919061330c565b60405180910390a27fc0362da6f2ff36b382b34aec0814f6b3cdf89f5ef282a1d1f114d0c0b036d5968233604051610ad8929190613327565b60405180910390a15050565b60066020528060005260406000206000915090505481565b60006004600083815260200190815260200160002090508060000160009054906101000a900473ffffffffffffffffffffffffffffffffffffffff1673ffffffffffffffffffffffffffffffffffffffff163373ffffffffffffffffffffffffffffffffffffffff1614610ba5576040517f08c379a0000000000000000000000000000000000000000000000000000000008152600401610b9c906133c2565b60405180910390fd5b8060050160009054906101000a900460ff1615610bf7576040517f08c379a0000000000000000000000000000000000000000000000000000000008152600401610bee90613454565b60405180910390fd5b600a60009054906101000a900473ffffffffffffffffffffffffffffffffffffffff1673ffffffffffffffffffffffffffffffffffffffff1663a9059cbb8260000160009054906101000a900473ffffffffffffffffffffffffffffffffffffffff1683600201546040518363ffffffff1660e01b8152600401610c7c92919061323c565b6020604051808303816000875af1158015610c9b573d6000803e3d6000fd5b505050506040513d601f19601f82011682018060405250810190610cbf9190612cf3565b610cfe576040517f08c379a0000000000000000000000000000000000000000000000000000000008152600401610cf5906132b1565b60405180910390fd5b7fc0362da6f2ff36b382b34aec0814f6b3cdf89f5ef282a1d1f114d0c0b036d5968233604051610d2f929190613327565b60405180910390a15050565b565b6000670de0b6b3a764000082610d539190613474565b905080600360003373ffffffffffffffffffffffffffffffffffffffff1673ffffffffffffffffffffffffffffffffffffffff168152602001908152602001600020541015610dd7576040517f08c379a0000000000000000000000000000000000000000000000000000000008152600401610dce90613502565b60405180910390fd5b80600160003373ffffffffffffffffffffffffffffffffffffffff1673ffffffffffffffffffffffffffffffffffffffff168152602001908152602001600020541015610e59576040517f08c379a0000000000000000000000000000000000000000000000000000000008152600401610e5090613594565b60405180910390fd5b80600360003373ffffffffffffffffffffffffffffffffffffffff1673ffffffffffffffffffffffffffffffffffffffff1681526020019081526020016000206000828254610ea89190613130565b9250508190555081600160003373ffffffffffffffffffffffffffffffffffffffff1673ffffffffffffffffffffffffffffffffffffffff1681526020019081526020016000206000828254610efe9190613130565b92505081905550600960009054906101000a900473ffffffffffffffffffffffffffffffffffffffff1673ffffffffffffffffffffffffffffffffffffffff1663a9059cbb33836040518363ffffffff1660e01b8152600401610f6292919061323c565b6020604051808303816000875af1158015610f81573d6000803e3d6000fd5b505050506040513d601f19601f82011682018060405250810190610fa59190612cf3565b503373ffffffffffffffffffffffffffffffffffffffff167f2335231cd412e7496a6880a85ed0772f63cd2e9d854ca1da314006e6dd03d77283604051610fec9190612959565b60405180910390a25050565b60006004600083815260200190815260200160002090508060010160009054906101000a900473ffffffffffffffffffffffffffffffffffffffff1673ffffffffffffffffffffffffffffffffffffffff163373ffffffffffffffffffffffffffffffffffffffff16146110a1576040517f08c379a000000000000000000000000000000000000000000000000000000000815260040161109890613626565b60405180910390fd5b8060050160009054906101000a900460ff166110f2576040517f08c379a00000000000000000000000000000000000000000000000000000000081526004016110e990613692565b60405180910390fd5b600a60009054906101000a900473ffffffffffffffffffffffffffffffffffffffff1673ffffffffffffffffffffffffffffffffffffffff1663a9059cbb8260000160009054906101000a900473ffffffffffffffffffffffffffffffffffffffff1683600201546040518363ffffffff1660e01b815260040161117792919061323c565b6020604051808303816000875af1158015611196573d6000803e3d6000fd5b505050506040513d601f19601f820116820180604052508101906111ba9190612cf3565b6111f9576040517f08c379a00000000000000000000000000000000000000000000000000000000081526004016111f0906132b1565b60405180910390fd5b8060010160009054906101000a900473ffffffffffffffffffffffffffffffffffffffff1673ffffffffffffffffffffffffffffffffffffffff167f2335231cd412e7496a6880a85ed0772f63cd2e9d854ca1da314006e6dd03d7726001604051611264919061330c565b60405180910390a260018060008360010160009054906101000a900473ffffffffffffffffffffffffffffffffffffffff1673ffffffffffffffffffffffffffffffffffffffff1673ffffffffffffffffffffffffffffffffffffffff16815260200190815260200160002060008282546112df9190613130565b925050819055507fc0362da6f2ff36b382b34aec0814f6b3cdf89f5ef282a1d1f114d0c0b036d5968233604051611317929190613327565b60405180910390a15050565b61132b61228b565b6113356000612309565b565b600860003373ffffffffffffffffffffffffffffffffffffffff1673ffffffffffffffffffffffffffffffffffffffff16815260200190815260200160002060009054906101000a900460ff16156113c4576040517f08c379a00000000000000000000000000000000000000000000000000000000081526004016113bb906136fe565b60405180910390fd5b7f000000000000000000000000000000000000000000000000000000000000000073ffffffffffffffffffffffffffffffffffffffff16633bc778e384600161142b886040516020016114179190613766565b6040516020818303038152906040526123cd565b867f0000000000000000000000000000000000000000000000000000000000000000876040518763ffffffff1660e01b815260040161146f9695949392919061379b565b60006040518083038186803b15801561148757600080fd5b505afa15801561149b573d6000803e3d6000fd5b505050506001600860003373ffffffffffffffffffffffffffffffffffffffff1673ffffffffffffffffffffffffffffffffffffffff16815260200190815260200160002060006101000a81548160ff0219169083151502179055506064600160003373ffffffffffffffffffffffffffffffffffffffff1673ffffffffffffffffffffffffffffffffffffffff168152602001908152602001600020600082825461154791906137fd565b925050819055503373ffffffffffffffffffffffffffffffffffffffff167fb13c3a23619fd9c27b8a17467896436b540ac47d619112042f377edf404073926064604051611595919061386c565b60405180910390a250505050565b60008060009054906101000a900473ffffffffffffffffffffffffffffffffffffffff16905090565b60056020528060005260406000206000915090505481565b60006004600084815260200190815260200160002090508060010160009054906101000a900473ffffffffffffffffffffffffffffffffffffffff1673ffffffffffffffffffffffffffffffffffffffff163373ffffffffffffffffffffffffffffffffffffffff161461168d576040517f08c379a0000000000000000000000000000000000000000000000000000000008152600401611684906138f9565b60405180910390fd5b8060050160009054906101000a900460ff166116de576040517f08c379a00000000000000000000000000000000000000000000000000000000081526004016116d590613692565b60405180910390fd5b6000836040516020016116f19190613991565b604051602081830303815290604052805190602001209050600061171482612404565b90506000611722828661243a565b90508360000160009054906101000a900473ffffffffffffffffffffffffffffffffffffffff1673ffffffffffffffffffffffffffffffffffffffff168173ffffffffffffffffffffffffffffffffffffffff16146117b6576040517f08c379a00000000000000000000000000000000000000000000000000000000081526004016117ad90613a03565b60405180910390fd5b600a60009054906101000a900473ffffffffffffffffffffffffffffffffffffffff1673ffffffffffffffffffffffffffffffffffffffff1663a9059cbb8560010160009054906101000a900473ffffffffffffffffffffffffffffffffffffffff1686600201546040518363ffffffff1660e01b815260040161183b92919061323c565b6020604051808303816000875af115801561185a573d6000803e3d6000fd5b505050506040513d601f19601f8201168201806040525081019061187e9190612cf3565b6118bd576040517f08c379a00000000000000000000000000000000000000000000000000000000081526004016118b490613a95565b60405180910390fd5b60018460050160016101000a81548160ff02191690831515021790555060018060003373ffffffffffffffffffffffffffffffffffffffff1673ffffffffffffffffffffffffffffffffffffffff168152602001908152602001600020600082825461192991906137fd565b925050819055506001600260008660000160009054906101000a900473ffffffffffffffffffffffffffffffffffffffff1673ffffffffffffffffffffffffffffffffffffffff1673ffffffffffffffffffffffffffffffffffffffff16815260200190815260200160002060008282546119a491906137fd565b925050819055503373ffffffffffffffffffffffffffffffffffffffff167fb13c3a23619fd9c27b8a17467896436b540ac47d619112042f377edf4040739260016040516119f2919061330c565b60405180910390a28360000160009054906101000a900473ffffffffffffffffffffffffffffffffffffffff1673ffffffffffffffffffffffffffffffffffffffff167f708b16590d7d5a067d5fb66b73ab37794e6eb26a06749829cda154faa30a590b6001604051611a65919061330c565b60405180910390a27f02a7d4d9472af7118644884b9a0ee443540c0027e938dd0aa35be8ecbe946c0a86604051611a9c9190612959565b60405180910390a1505050505050565b60036020528060005260406000206000915090505481565b60046020528060005260406000206000915090508060000160009054906101000a900473ffffffffffffffffffffffffffffffffffffffff16908060010160009054906101000a900473ffffffffffffffffffffffffffffffffffffffff1690806002015490806003015490806004018054611b3f90612e43565b80601f0160208091040260200160405190810160405280929190818152602001828054611b6b90612e43565b8015611bb85780601f10611b8d57610100808354040283529160200191611bb8565b820191906000526020600020905b815481529060010190602001808311611b9b57829003601f168201915b5050505050908060050160009054906101000a900460ff16908060050160019054906101000a900460ff16905087565b611bf061228b565b8160056000838152602001908152602001600020819055505050565b60016020528060005260406000206000915090505481565b600581565b6000606490506000670de0b6b3a764000082611c459190613474565b9050600960009054906101000a900473ffffffffffffffffffffffffffffffffffffffff1673ffffffffffffffffffffffffffffffffffffffff166323b872dd3330846040518463ffffffff1660e01b8152600401611ca693929190612c90565b6020604051808303816000875af1158015611cc5573d6000803e3d6000fd5b505050506040513d601f19601f82011682018060405250810190611ce99190612cf3565b5081600160003373ffffffffffffffffffffffffffffffffffffffff1673ffffffffffffffffffffffffffffffffffffffff1681526020019081526020016000206000828254611d3991906137fd565b9250508190555080600360003373ffffffffffffffffffffffffffffffffffffffff1673ffffffffffffffffffffffffffffffffffffffff1681526020019081526020016000206000828254611d8f91906137fd565b925050819055503373ffffffffffffffffffffffffffffffffffffffff167fb13c3a23619fd9c27b8a17467896436b540ac47d619112042f377edf4040739283604051611ddc9190612959565b60405180910390a25050565b60086020528060005260406000206000915054906101000a900460ff1681565b611e1061228b565b81600960006101000a81548173ffffffffffffffffffffffffffffffffffffffff021916908373ffffffffffffffffffffffffffffffffffffffff16021790555080600a60006101000a81548173ffffffffffffffffffffffffffffffffffffffff021916908373ffffffffffffffffffffffffffffffffffffffff1602179055505050565b6000600460008381526020019081526020016000209050600560006001815260200190815260200160002054600160003373ffffffffffffffffffffffffffffffffffffffff1673ffffffffffffffffffffffffffffffffffffffff168152602001908152602001600020541015611f43576040517f08c379a0000000000000000000000000000000000000000000000000000000008152600401611f3a90613b01565b60405180910390fd5b600760003373ffffffffffffffffffffffffffffffffffffffff1673ffffffffffffffffffffffffffffffffffffffff16815260200190815260200160002060009054906101000a900460ff1615611fd0576040517f08c379a0000000000000000000000000000000000000000000000000000000008152600401611fc790613b93565b60405180910390fd5b600073ffffffffffffffffffffffffffffffffffffffff168160010160009054906101000a900473ffffffffffffffffffffffffffffffffffffffff1673ffffffffffffffffffffffffffffffffffffffff1614612063576040517f08c379a000000000000000000000000000000000000000000000000000000000815260040161205a90613bff565b60405180910390fd5b8060050160019054906101000a900460ff16156120b5576040517f08c379a00000000000000000000000000000000000000000000000000000000081526004016120ac9061321c565b60405180910390fd5b338160010160006101000a81548173ffffffffffffffffffffffffffffffffffffffff021916908373ffffffffffffffffffffffffffffffffffffffff16021790555060018160050160006101000a81548160ff0219169083151502179055506001600760003373ffffffffffffffffffffffffffffffffffffffff1673ffffffffffffffffffffffffffffffffffffffff16815260200190815260200160002060006101000a81548160ff0219169083151502179055507fa3a9d59445e437d97cac53692b666afef6c152b0642edd206bde8472f387e59a823360405161219e929190613327565b60405180910390a15050565b6121b261228b565b600073ffffffffffffffffffffffffffffffffffffffff168173ffffffffffffffffffffffffffffffffffffffff1603612221576040517f08c379a000000000000000000000000000000000000000000000000000000000815260040161221890613c91565b60405180910390fd5b61222a81612309565b50565b60076020528060005260406000206000915054906101000a900460ff1681565b600960009054906101000a900473ffffffffffffffffffffffffffffffffffffffff1681565b60026020528060005260406000206000915090505481565b612293612461565b73ffffffffffffffffffffffffffffffffffffffff166122b16115a3565b73ffffffffffffffffffffffffffffffffffffffff1614612307576040517f08c379a00000000000000000000000000000000000000000000000000000000081526004016122fe90613cfd565b60405180910390fd5b565b60008060009054906101000a900473ffffffffffffffffffffffffffffffffffffffff169050816000806101000a81548173ffffffffffffffffffffffffffffffffffffffff021916908373ffffffffffffffffffffffffffffffffffffffff1602179055508173ffffffffffffffffffffffffffffffffffffffff168173ffffffffffffffffffffffffffffffffffffffff167f8be0079c531659141344cd1fd0a4f28419497f9722a3daafe3b4186f6b6457e060405160405180910390a35050565b60006008826040516020016123e29190613d59565b6040516020818303038152906040528051906020012060001c901c9050919050565b60007f19457468657265756d205369676e6564204d6573736167653a0a33320000000060005281601c52603c6000209050919050565b60008060006124498585612469565b91509150612456816124ba565b819250505092915050565b600033905090565b60008060418351036124aa5760008060006020860151925060408601519150606086015160001a905061249e87828585612620565b945094505050506124b3565b60006002915091505b9250929050565b600060048111156124ce576124cd613d70565b5b8160048111156124e1576124e0613d70565b5b031561261d57600160048111156124fb576124fa613d70565b5b81600481111561250e5761250d613d70565b5b0361254e576040517f08c379a000000000000000000000000000000000000000000000000000000000815260040161254590613deb565b60405180910390fd5b6002600481111561256257612561613d70565b5b81600481111561257557612574613d70565b5b036125b5576040517f08c379a00000000000000000000000000000000000000000000000000000000081526004016125ac90613e57565b60405180910390fd5b600360048111156125c9576125c8613d70565b5b8160048111156125dc576125db613d70565b5b0361261c576040517f08c379a000000000000000000000000000000000000000000000000000000000815260040161261390613ee9565b60405180910390fd5b5b50565b6000807f7fffffffffffffffffffffffffffffff5d576e7357a4501ddfe92f46681b20a08360001c111561265b5760006003915091506126f9565b6000600187878787604051600081526020016040526040516126809493929190613f3e565b6020604051602081039080840390855afa1580156126a2573d6000803e3d6000fd5b505050602060405103519050600073ffffffffffffffffffffffffffffffffffffffff168173ffffffffffffffffffffffffffffffffffffffff16036126f0576000600192509250506126f9565b80600092509250505b94509492505050565b600073ffffffffffffffffffffffffffffffffffffffff82169050919050565b600061272d82612702565b9050919050565b61273d81612722565b82525050565b60006020820190506127586000830184612734565b92915050565b6000604051905090565b600080fd5b600080fd5b600080fd5b600080fd5b6000601f19601f8301169050919050565b7f4e487b7100000000000000000000000000000000000000000000000000000000600052604160045260246000fd5b6127c58261277c565b810181811067ffffffffffffffff821117156127e4576127e361278d565b5b80604052505050565b60006127f761275e565b905061280382826127bc565b919050565b600067ffffffffffffffff8211156128235761282261278d565b5b61282c8261277c565b9050602081019050919050565b82818337600083830152505050565b600061285b61285684612808565b6127ed565b90508281526020810184848401111561287757612876612777565b5b612882848285612839565b509392505050565b600082601f83011261289f5761289e612772565b5b81356128af848260208601612848565b91505092915050565b6000819050919050565b6128cb816128b8565b81146128d657600080fd5b50565b6000813590506128e8816128c2565b92915050565b6000806040838503121561290557612904612768565b5b600083013567ffffffffffffffff8111156129235761292261276d565b5b61292f8582860161288a565b9250506020612940858286016128d9565b9150509250929050565b612953816128b8565b82525050565b600060208201905061296e600083018461294a565b92915050565b60006020828403121561298a57612989612768565b5b6000612998848285016128d9565b91505092915050565b6129aa81612722565b81146129b557600080fd5b50565b6000813590506129c7816129a1565b92915050565b600080fd5b6000819050826020600802820111156129ee576129ed6129cd565b5b92915050565b6000806000806101608587031215612a0f57612a0e612768565b5b6000612a1d878288016129b8565b9450506020612a2e878288016128d9565b9350506040612a3f878288016128d9565b9250506060612a50878288016129d2565b91505092959194509250565b60008060408385031215612a7357612a72612768565b5b6000612a81858286016128d9565b925050602083013567ffffffffffffffff811115612aa257612aa161276d565b5b612aae8582860161288a565b9150509250929050565b600060208284031215612ace57612acd612768565b5b6000612adc848285016129b8565b91505092915050565b600081519050919050565b600082825260208201905092915050565b60005b83811015612b1f578082015181840152602081019050612b04565b60008484015250505050565b6000612b3682612ae5565b612b408185612af0565b9350612b50818560208601612b01565b612b598161277c565b840191505092915050565b60008115159050919050565b612b7981612b64565b82525050565b600060e082019050612b94600083018a612734565b612ba16020830189612734565b612bae604083018861294a565b612bbb606083018761294a565b8181036080830152612bcd8186612b2b565b9050612bdc60a0830185612b70565b612be960c0830184612b70565b98975050505050505050565b60008060408385031215612c0c57612c0b612768565b5b6000612c1a858286016128d9565b9250506020612c2b858286016128d9565b9150509250929050565b6000602082019050612c4a6000830184612b70565b92915050565b60008060408385031215612c6757612c66612768565b5b6000612c75858286016129b8565b9250506020612c86858286016129b8565b9150509250929050565b6000606082019050612ca56000830186612734565b612cb26020830185612734565b612cbf604083018461294a565b949350505050565b612cd081612b64565b8114612cdb57600080fd5b50565b600081519050612ced81612cc7565b92915050565b600060208284031215612d0957612d08612768565b5b6000612d1784828501612cde565b91505092915050565b600082825260208201905092915050565b7f546f6b656e207472616e73666572206661696c65640000000000000000000000600082015250565b6000612d67601583612d20565b9150612d7282612d31565b602082019050919050565b60006020820190508181036000830152612d9681612d5a565b9050919050565b7f4e487b7100000000000000000000000000000000000000000000000000000000600052601160045260246000fd5b6000612dd7826128b8565b91507fffffffffffffffffffffffffffffffffffffffffffffffffffffffffffffffff8203612e0957612e08612d9d565b5b600182019050919050565b7f4e487b7100000000000000000000000000000000000000000000000000000000600052602260045260246000fd5b60006002820490506001821680612e5b57607f821691505b602082108103612e6e57612e6d612e14565b5b50919050565b60008190508160005260206000209050919050565b60006020601f8301049050919050565b600082821b905092915050565b600060088302612ed67fffffffffffffffffffffffffffffffffffffffffffffffffffffffffffffffff82612e99565b612ee08683612e99565b95508019841693508086168417925050509392505050565b6000819050919050565b6000612f1d612f18612f13846128b8565b612ef8565b6128b8565b9050919050565b6000819050919050565b612f3783612f02565b612f4b612f4382612f24565b848454612ea6565b825550505050565b600090565b612f60612f53565b612f6b818484612f2e565b505050565b5b81811015612f8f57612f84600082612f58565b600181019050612f71565b5050565b601f821115612fd457612fa581612e74565b612fae84612e89565b81016020851015612fbd578190505b612fd1612fc985612e89565b830182612f70565b50505b505050565b600082821c905092915050565b6000612ff760001984600802612fd9565b1980831691505092915050565b60006130108383612fe6565b9150826002028217905092915050565b61302982612ae5565b67ffffffffffffffff8111156130425761304161278d565b5b61304c8254612e43565b613057828285612f93565b600060209050601f83116001811461308a5760008415613078578287015190505b6130828582613004565b8655506130ea565b601f19841661309886612e74565b60005b828110156130c05784890151825560018201915060208501945060208101905061309b565b868310156130dd57848901516130d9601f891682612fe6565b8355505b6001600288020188555050505b505050505050565b6000606082019050613107600083018661294a565b6131146020830185612734565b81810360408301526131268184612b2b565b9050949350505050565b600061313b826128b8565b9150613146836128b8565b925082820390508181111561315e5761315d612d9d565b5b92915050565b7f3320686f7572732068617665206e6f7420706173736564207965740000000000600082015250565b600061319a601b83612d20565b91506131a582613164565b602082019050919050565b600060208201905081810360008301526131c98161318d565b9050919050565b7f4f7264657220697320616c726561647920636f6d706c65746564000000000000600082015250565b6000613206601a83612d20565b9150613211826131d0565b602082019050919050565b60006020820190508181036000830152613235816131f9565b9050919050565b60006040820190506132516000830185612734565b61325e602083018461294a565b9392505050565b7f546f6b656e20726566756e64206661696c656400000000000000000000000000600082015250565b600061329b601383612d20565b91506132a682613265565b602082019050919050565b600060208201905081810360008301526132ca8161328e565b9050919050565b6000819050919050565b60006132f66132f16132ec846132d1565b612ef8565b6128b8565b9050919050565b613306816132db565b82525050565b600060208201905061332160008301846132fd565b92915050565b600060408201905061333c600083018561294a565b6133496020830184612734565b9392505050565b7f4f6e6c792074686520637573746f6d65722063616e2063616e63656c2074686560008201527f206f726465720000000000000000000000000000000000000000000000000000602082015250565b60006133ac602683612d20565b91506133b782613350565b604082019050919050565b600060208201905081810360008301526133db8161339f565b9050919050565b7f4f726465722068617320616c7265616479206265656e2061636365707465642060008201527f627920612064656c697665726572000000000000000000000000000000000000602082015250565b600061343e602e83612d20565b9150613449826133e2565b604082019050919050565b6000602082019050818103600083015261346d81613431565b9050919050565b600061347f826128b8565b915061348a836128b8565b9250828202613498816128b8565b915082820484148315176134af576134ae612d9d565b5b5092915050565b7f4e6f7420656e6f756768207374616b656420746f6b656e730000000000000000600082015250565b60006134ec601883612d20565b91506134f7826134b6565b602082019050919050565b6000602082019050818103600083015261351b816134df565b9050919050565b7f52657075746174696f6e206973206c657373207468616e2074686520616d6f7560008201527f6e7420746f20756e7374616b6500000000000000000000000000000000000000602082015250565b600061357e602d83612d20565b915061358982613522565b604082019050919050565b600060208201905081810360008301526135ad81613571565b9050919050565b7f4f6e6c79207468652061737369676e65642064656c6976657265722063616e2060008201527f63616e63656c20746865206f7264657200000000000000000000000000000000602082015250565b6000613610603083612d20565b915061361b826135b4565b604082019050919050565b6000602082019050818103600083015261363f81613603565b9050919050565b7f4f7264657220686173206e6f74206265656e2061636365707465642079657400600082015250565b600061367c601f83612d20565b915061368782613646565b602082019050919050565b600060208201905081810360008301526136ab8161366f565b9050919050565b7f616c726561647920726567697374657265640000000000000000000000000000600082015250565b60006136e8601283612d20565b91506136f3826136b2565b602082019050919050565b60006020820190508181036000830152613717816136db565b9050919050565b60008160601b9050919050565b60006137368261371e565b9050919050565b60006137488261372b565b9050919050565b61376061375b82612722565b61373d565b82525050565b6000613772828461374f565b60148201915081905092915050565b82818337505050565b6137976101008383613781565b5050565b60006101a0820190506137b1600083018961294a565b6137be60208301886132fd565b6137cb604083018761294a565b6137d8606083018661294a565b6137e5608083018561294a565b6137f260a083018461378a565b979650505050505050565b6000613808826128b8565b9150613813836128b8565b925082820190508082111561382b5761382a612d9d565b5b92915050565b6000819050919050565b600061385661385161384c84613831565b612ef8565b6128b8565b9050919050565b6138668161383b565b82525050565b6000602082019050613881600083018461385d565b92915050565b7f4f6e6c79207468652061737369676e65642064656c6976657265722063616e2060008201527f636f6d706c65746520746865206f726465720000000000000000000000000000602082015250565b60006138e3603283612d20565b91506138ee82613887565b604082019050919050565b60006020820190508181036000830152613912816138d6565b9050919050565b600081905092915050565b7f4f7264657220436f6d706c657465640000000000000000000000000000000000600082015250565b600061395a600f83613919565b915061396582613924565b600f82019050919050565b6000819050919050565b61398b613986826128b8565b613970565b82525050565b600061399c8261394d565b91506139a8828461397a565b60208201915081905092915050565b7f496e76616c6964207369676e6174757265000000000000000000000000000000600082015250565b60006139ed601183612d20565b91506139f8826139b7565b602082019050919050565b60006020820190508181036000830152613a1c816139e0565b9050919050565b7f546f6b656e207472616e7366657220746f2064656c697665726572206661696c60008201527f6564000000000000000000000000000000000000000000000000000000000000602082015250565b6000613a7f602283612d20565b9150613a8a82613a23565b604082019050919050565b60006020820190508181036000830152613aae81613a72565b9050919050565b7f4e6f7420656e6f7567682072657075746174696f6e2100000000000000000000600082015250565b6000613aeb601683612d20565b9150613af682613ab5565b602082019050919050565b60006020820190508181036000830152613b1a81613ade565b9050919050565b7f44656c69766572657220616c72656164792068617320616e206163746976652060008201527f6f72646572210000000000000000000000000000000000000000000000000000602082015250565b6000613b7d602683612d20565b9150613b8882613b21565b604082019050919050565b60006020820190508181036000830152613bac81613b70565b9050919050565b7f4f7264657220616c72656164792068617320612064656c697665726572000000600082015250565b6000613be9601d83612d20565b9150613bf482613bb3565b602082019050919050565b60006020820190508181036000830152613c1881613bdc565b9050919050565b7f4f776e61626c653a206e6577206f776e657220697320746865207a65726f206160008201527f6464726573730000000000000000000000000000000000000000000000000000602082015250565b6000613c7b602683612d20565b9150613c8682613c1f565b604082019050919050565b60006020820190508181036000830152613caa81613c6e565b9050919050565b7f4f776e61626c653a2063616c6c6572206973206e6f7420746865206f776e6572600082015250565b6000613ce7602083612d20565b9150613cf282613cb1565b602082019050919050565b60006020820190508181036000830152613d1681613cda565b9050919050565b600081905092915050565b6000613d3382612ae5565b613d3d8185613d1d565b9350613d4d818560208601612b01565b80840191505092915050565b6000613d658284613d28565b915081905092915050565b7f4e487b7100000000000000000000000000000000000000000000000000000000600052602160045260246000fd5b7f45434453413a20696e76616c6964207369676e61747572650000000000000000600082015250565b6000613dd5601883612d20565b9150613de082613d9f565b602082019050919050565b60006020820190508181036000830152613e0481613dc8565b9050919050565b7f45434453413a20696e76616c6964207369676e6174757265206c656e67746800600082015250565b6000613e41601f83612d20565b9150613e4c82613e0b565b602082019050919050565b60006020820190508181036000830152613e7081613e34565b9050919050565b7f45434453413a20696e76616c6964207369676e6174757265202773272076616c60008201527f7565000000000000000000000000000000000000000000000000000000000000602082015250565b6000613ed3602283612d20565b9150613ede82613e77565b604082019050919050565b60006020820190508181036000830152613f0281613ec6565b9050919050565b6000819050919050565b613f1c81613f09565b82525050565b600060ff82169050919050565b613f3881613f22565b82525050565b6000608082019050613f536000830187613f13565b613f606020830186613f2f565b613f6d6040830185613f13565b613f7a6060830184613f13565b9594505050505056fea2646970667358221220ec9d775acfd484b5611dfdcc012da521d5d4db14035beca87d0da81bbef023e064736f6c63430008130033",
  "linkReferences": {},
  "deployedLinkReferences": {}
}